:020000040800F2
:10000000000400209D010008A5010008A7010008C8
:10001000A9010008AB010008AD01000800000000C4
:10002000000000000000000000000000AF01000818
:10003000B101000800000000B3010008B50100088C
:10004000B7010008B7010008B7010008B7010008B0
:10005000B7010008B7010008B7010008B7010008A0
:10006000B7010008B7010008B7010008B701000890
:10007000B7010008B7010008B7010008B701000880
:10008000B7010008B7010008B7010008B701000870
:10009000B7010008B7010008B7010008B701000860
:1000A000B7010008B7010008B7010008B701000850
:1000B000B7010008B7010008B7010008B701000840
:1000C000B7010008B7010008B7010008B701000830
:1000D000B7010008B7010008B7010008B701000820
:1000E000B7010008B7010008B7010008B701000810
:1000F000B7010008B7010008B7010008B701000800
:10010000B7010008B7010008B7010008B7010008EF
:10011000B7010008B7010008B7010008B7010008DF
:10012000B7010008B7010008B7010008B7010008CF
:10013000B7010008B7010008B7010008B7010008BF
:10014000B7010008B7010008B7010008B7010008AF
:10015000B7010008B7010008B7010008B70100089F
:10016000B7010008B7010008B7010008B70100088F
:10017000B7010008B7010008B7010008B70100087F
:10018000B7010008B7010008DFF80CD000F018F83C
:100190000048004705020008000400200648804788
:1001A00006480047FEE7FEE7FEE7FEE7FEE7FEE75C
:1001B000FEE7FEE7FEE7FEE7E5010008890100082B
:1001C000064C074D06E0E06840F0010394E80700A4
:1001D00098471034AC42F6D3FFF7DAFF98020008D4
:1001E000A80200087047000081B00090FFE7009867
:1001F00028B1FFE7FFE7009801380090F7E701B06A
:100200007047000080B584B00020039043F63001B1
:10021000C4F20201086840F02000086041F2004189
:10022000C4F20201086820F440200860086840F425
:100230008020086041F21441C4F20201086840F4D1
:1002400000700860FFE741F21441C4F2020101911D
:10025000086820F4007008604FF6FF70C0F20F00CD
:100260000290FFF7C1FF019A0298116841F40071F2
:100270001160FFF7B9FFE6E702E008C8121F08C1E6
:10028000002AFAD170477047002001E001C1121F17
:10029000002AFBD170470000A802000800000020DF
:0802A0000004000088020008C0
:040000050800019D51
:00000001FF
