:020000040800F2
:10000000000400209D010008A5010008A7010008C8
:10001000A9010008AB010008AD01000800000000C4
:10002000000000000000000000000000AF01000818
:10003000B101000800000000B3010008B50100088C
:10004000B7010008B7010008B7010008B7010008B0
:10005000B7010008B7010008B7010008B7010008A0
:10006000B7010008B7010008B7010008B701000890
:10007000B7010008B7010008B7010008B701000880
:10008000B7010008B7010008B7010008B701000870
:10009000B7010008B7010008B7010008B701000860
:1000A000B7010008B7010008B7010008B701000850
:1000B000B7010008B7010008B7010008B701000840
:1000C000B7010008B7010008B7010008B701000830
:1000D000B7010008B7010008B7010008B701000820
:1000E000B7010008B7010008B7010008B701000810
:1000F000B7010008B7010008B7010008B701000800
:10010000B7010008B7010008B7010008B7010008EF
:10011000B7010008B7010008B7010008B7010008DF
:10012000B7010008B7010008B7010008B7010008CF
:10013000B7010008B7010008B7010008B7010008BF
:10014000B7010008B7010008B7010008B7010008AF
:10015000B7010008B7010008B7010008B70100089F
:10016000B7010008B7010008B7010008B70100088F
:10017000B7010008B7010008B7010008B70100087F
:10018000B7010008B7010008DFF80CD000F018F83C
:10019000004800471D03000800040020064880476F
:1001A00006480047FEE7FEE7FEE7FEE7FEE7FEE75C
:1001B000FEE7FEE7FEE7FEE7FD0200088901000812
:1001C000064C074D06E0E06840F0010394E80700A4
:1001D00098471034AC42F6D3FFF7DAFFAC030008BF
:1001E000BC03000885B004900391002002900190A8
:1001F00000900290FFE702980F2868D8FFE7029965
:1002000001208840019003980068019908400090FF
:1002100000980199884255D1FFE7029841000320D8
:1002200000FA01F3049A116899431160039909795E
:10023000029A520001FA02F3049A116819431160FC
:100240000299490000FA01F20499C8689043C86015
:100250000398C0790299490000FA01F20499C8682C
:100260001043C86003980079012805D0FFE7039880
:100270000079022825D1FFE702984100032000FA07
:1002800001F2049988689043886003984079029944
:10029000490000FA01F204998868104388600299C5
:1002A000012000FA01F204994868904348600398DD
:1002B00080790299884082B2049948681043486066
:1002C000FFE7FFE7FFE702980130029093E705B0F0
:1002D0007047000082B00190ADF80210BDF8020036
:1002E0000199488302B0704782B00190ADF80210C6
:1002F000BDF802000199088302B070477047000002
:1003000081B00090FFE7009828B1FFE7FFE7009871
:1003100001380090F7E701B07047000080B586B063
:100320000020059043F63002C4F20202116841F049
:10033000200111604FF40071039101218DF810101C
:100340008DF812008DF813108DF8110041F2004065
:10035000C4F2020003A9FFF745FFFFE741F20040A6
:10036000C4F2020000904FF400710191FFF7BCFF4E
:100370004FF6FF70C0F20F000290FFF7C1FF009828
:100380000199FFF7A7FF0298FFF7BAFFE6E702E03F
:1003900008C8121F08C1002AFAD170477047002010
:1003A00001E001C1121F002AFBD17047BC03000805
:0C03B00000000020000400009E03000874
:040000050800019D51
:00000001FF
